8=FIX.4.4|9=196|35=D|34=1|49=CLIENT1|52=20240115-10:00:00.000|56=CME|11=ORDER001|21=1|38=100|40=2|44=50000.00|54=1|55=BTC|59=0|60=20240115-10:00:00.000|167=FUT|200=202403|10=123|
8=FIX.4.4|9=196|35=D|34=2|49=CLIENT1|52=20240115-10:00:00.100|56=CME|11=ORDER002|21=1|38=50|40=2|44=50010.00|54=2|55=BTC|59=0|60=20240115-10:00:00.100|167=FUT|200=202403|10=124|
8=FIX.4.4|9=196|35=D|34=3|49=CLIENT2|52=20240115-10:00:00.200|56=CME|11=ORDER003|21=1|38=75|40=2|44=49995.00|54=1|55=BTC|59=0|60=20240115-10:00:00.200|167=FUT|200=202403|10=125|
8=FIX.4.4|9=196|35=D|34=4|49=CLIENT2|52=20240115-10:00:00.300|56=CME|11=ORDER004|21=1|38=25|40=2|44=50005.00|54=2|55=BTC|59=0|60=20240115-10:00:00.300|167=FUT|200=202403|10=126|
8=FIX.4.4|9=196|35=8|34=5|49=CME|52=20240115-10:00:00.400|56=CLIENT1|11=ORDER001|14=50|17=EXEC001|20=0|31=50005.00|32=50|37=CME001|38=100|39=1|54=1|55=BTC|150=F|151=50|10=127|
8=FIX.4.4|9=196|35=8|34=6|49=CME|52=20240115-10:00:00.500|56=CLIENT2|11=ORDER004|14=25|17=EXEC002|20=0|31=50005.00|32=25|37=CME002|38=25|39=2|54=2|55=BTC|150=F|151=0|10=128|
